:020000040800F2
:10000000008000201DC400086DC400086DC40008F5
:1000100000000000000000000000000000000000E0
:100020000000000000000000000000006DC4000897
:1000300000000000000000006DC400080B9C0008D8
:100040006DC400086DC400086DC400086DC40008CC
:100050006DC40008A19F0008B59F0008C99F000853
:100060006DC400086DC400086DC400086DC40008AC
:100070006DC4000839930008519300086993000883
:100080008193000899930008B1930008C993000870
:10009000E1930008F99300081194000889B400085E
:1000A000A1B400086DC400086DC4000839AF000891
:0C00B00051AF00086DAF00086DC40008DF
:1000BC000023C25C0133002AFBD1581E704700009C
:1000CC0003B47146490840004900095E49008E445A
:1000DC0003BC7047002243088B4274D303098B4244
:1000EC005FD3030A8B4244D3030B8B4228D3030CFC
:1000FC008B420DD3FF22090212BA030C8B4202D39E
:10010C001212090265D0030B8B4219D300E0090AC5
:10011C00C30B8B4201D3CB03C01A5241830B8B42CE
:10012C0001D38B03C01A5241430B8B4201D34B03B7
:10013C00C01A5241030B8B4201D30B03C01A52411C
:10014C00C30A8B4201D3CB02C01A5241830A8B42A1
:10015C0001D38B02C01A5241430A8B4201D34B028A
:10016C00C01A5241030A8B4201D30B02C01A5241EE
:10017C00CDD2C3098B4201D3CB01C01A52418309A2
:10018C008B4201D38B01C01A524143098B4201D3DC
:10019C004B01C01A524103098B4201D30B01C01A07
:1001AC005241C3088B4201D3CB00C01A5241830881
:1001BC008B4201D38B00C01A524143088B4201D3AE
:1001CC004B00C01A5241411A00D20146524110460E
:1001DC007047FFE701B5002000F0F0F802BDC04603
:1001EC000029F7D076E7704703460B437FD40022F3
:1001FC0043088B4274D303098B425FD3030A8B42AF
:10020C0044D3030B8B4228D3030C8B420DD3FF2218
:10021C00090212BA030C8B4202D31212090265D0E6
:10022C00030B8B4219D300E0090AC30B8B4201D399
:10023C00CB03C01A5241830B8B4201D38B03C01AE0
:10024C005241430B8B4201D34B03C01A5241030B57
:10025C008B4201D30B03C01A5241C30A8B4201D308
:10026C00CB02C01A5241830A8B4201D38B02C01AB3
:10027C005241430A8B4201D34B02C01A5241030A2A
:10028C008B4201D30B02C01A5241CDD2C3098B420F
:10029C0001D3CB01C01A524183098B4201D38B018C
:1002AC00C01A524143098B4201D34B01C01A52412F
:1002BC0003098B4201D30B01C01A5241C3088B4274
:1002CC0001D3CB00C01A524183088B4201D38B005F
:1002DC00C01A524143088B4201D34B00C01A524101
:1002EC00411A00D201465241104670475DE0CA0FD8
:1002FC0000D04942031000D34042534000229C4698
:10030C0003098B422DD3030A8B4212D3FC228901A1
:10031C0012BA030A8B420CD3890192118B4208D377
:10032C00890192118B4204D389013AD0921100E0D9
:10033C008909C3098B4201D3CB01C01A52418309ED
:10034C008B4201D38B01C01A524143098B4201D31A
:10035C004B01C01A524103098B4201D30B01C01A45
:10036C005241C3088B4201D3CB00C01A52418308BF
:10037C008B4201D38B00C01A5241D9D243088B4215
:10038C0001D34B00C01A5241411A00D201466346B8
:10039C0052415B10104601D34042002B00D549421C
:1003AC00704763465B1000D3404201B5002000F05B
:1003BC0005F802BD0029F8D016E770477047C04613
:1003CC008446100062468C461900634600E0C04625
:1003DC001FB50FF0B9FC002801D40021C8421FBD85
:1003EC0010B50FF0FBFB4042013010BD10B50FF003
:1003FC00ABFC002801DB002010BD012010BDC04665
:10040C0010B50FF0A1FC002801DD002010BD01206B
:10041C0010BDC04610B50FF027FC002801DC0020F1
:10042C0010BD012010BDC04610B50FF01DFC0028FA
:10043C0001DA002010BD012010BDC0468446080022
:10044C006146FFE71FB50DF0FFFF002801D4002126
:10045C00C8421FBD10B50DF087FF4042013010BDE2
:10046C0010B50DF0F1FF002801DB002010BD0120BC
:10047C0010BDC04610B50DF0E7FF002801DD0020CF
:10048C0010BD012010BDC04610B50DF095FF002821
:10049C0001DC002010BD012010BDC04610B50DF0D0
:1004AC008BFF002801DA002010BD012010BDC046D2
:1004BC00002B11D1002A0FD1002900D1002802D025
:1004CC000021C943080007B4024802A14018029059
:1004DC0003BDC046E9FEFFFF03B4684601B50298B0
:1004EC000DF052FB019B9E4602B00CBC7047C046FF
:1004FC001C2101231B04984201D3000C10391B0A48
:10050C00984201D3000A08391B09984201D300090B
:10051C00043902A2105C40187047C0460403020262
:10052C0001010101000000000000000010B50029CD
:10053C0003D1FFF7DDFF203002E00800FFF7D8FF02
:10054C0010BDC04610B5064C2378002B07D1054BC7
:10055C00002B02D0044800E000BF0123237010BD23
:10056C008801002000000000F40E0108044B10B5B7
:10057C00002B03D00349044800E000BF10BDC04667
:10058C00000000008C010020F40E010800207047D0
:10059C007047F8B505001400002608E04F1C0978D8
:1005AC002B681B68280098473618013C3900002C32
:1005BC00F4D13000F8BD0000024B03221A70002069
:1005CC007047C0465002002070B504000D0001F0C9
:1005DC003EFA0600012D01D0002070BD200001F074
:1005EC0033FA02005C23F35A0021300002F0B5FA12
:1005FC00F2E7000010B504000CF09CF80C4B1860EE
:10060C00012134200CF03EF8631C02D0012C07D0E1
:10061C0010BD084801F072F9074B01221A70F5E77A
:10062C00044801F0EFF8044B01221A70F0E7C046C1
:10063C004C020020C00100200000002010B50CF07E
:10064C0079F80B4B1860012134200CF01BF8094988
:10065C0009480BF091FA094801F076F9084B012290
:10066C001A70084B1B78002B01D1064B1A7010BD69
:10067C004C0200200C0F010890090020C001002042
:10068C00000000205002002010B502480BF02AFB9D
:10069C0010BDC046A801002010B50400B423C358F7
:1006AC00083098470300164A904201D9012010BD2A
:1006BC00BA22A25AB821615A2000083002F0F1F88F
:1006CC009023E35C022B15D008D8002B0DD0012B06
:1006DC00ECD1BA22A35A1B18A352E7E7032BE5D19E
:1006EC00BA22A35A1B1AA352E0E7B822A35A1B182A
:1006FC00A352DBE7B822A35A1B1AA352D6E7C04673
:10070C00FDFF000010B50830040002F06FFD200062
:10071C0001F0D9FD0021200002F06FFD012010BD79
:10072C00F8B5CE46474680B50400884616001F0033
:10073C0008AB1B789946124B036000234360114AA7
:10074C000260114AB4214250B822835202328352C1
:10075C0005000835280002F0C1FB0C4B23600C4B44
:10076C000C4A4146280001F0C3FD4B463A003100CB
:10077C00280000F005FD2000C0BCB946B046F8BD0D
:10078C00985D01086C130108312E000884130108D0
:10079C00250F0008B910000800B583B009490A48B4
:1007AC000823009301330A22FFF7BAFF07480523F9
:1007BC000622072103F04EF8054906480BF0E0FA33
:1007CC0003B000BD60500108F0020020A802002018
:1007DC008C110108A801002030B583B0224C234BAA
:1007EC00019340230093403300220021200001F0AC
:1007FC0038FB083CB8230022E25202330832E252A2
:10080C001B4920000BF09DF91A4B002159560A2266
:10081C0020000BF020FA184D290020000BF091F964
:10082C00164920000BF08DF9154B98680EF0E8F97D
:10083C0001000A2220000BF00EFA290020000BF018
:10084C0080F9104920000BF07CF90F4B98680EF0E2
:10085C00D7F901000A2220000BF0FDF92900200035
:10086C000BF06FF903B030BDF80200202C16010814
:10087C00200F010802000020280F01082C0F01088E
:10088C0080020020340F01085802002010B50BF034
:10089C0051FF084B1B68C01A074B1A78074B534380
:1008AC00984206D9064B1B78002B02D0044B03222E
:1008BC001A7010BD4C0200200100002060EA0000FC
:1008CC005002002010B51D4B1B78022B2ED010D8D7
:1008DC00002B23D0012B28D1194B00221A70012197
:1008EC0034200BF0CFFE17480022012100F0D0FF7E
:1008FC001BE0032B19D1002134200BF0C3FE114B4C
:10090C001B69002B06D00F4C200000F048FF200084
:10091C0000F000FF094B00221A7006E0084B002281
:10092C001A70002134200BF0ADFE10BD044B0122D7
:10093C001A70012134200BF0A5FEF6E750020020BE
:10094C0048020020C001002010B52B200BF0C4FE83
:10095C00054BD8702C200BF0BFFE044BD87004480C
:10096C0002F0AEFF10BDC0468002002058020020ED
:10097C00A8020020F0B5C64600B50C200BF086FD91
:10098C00254E307B0BF0B0FD0400244B98461860CC
:10099C004001001B80000019C0000EF0A1F9071CDB
:1009AC0080256D01281B0EF09BF9011C381C0DF0E5
:1009BC00C5FB1B4F38601B490DF0E0FE1A490DF0CA
:1009CC008BFD1A490DF0BAFBB0600C200BF05EFDEC
:1009DC00174E307B0BF088FD040043461860430132
:1009EC001B1A9B001B18D8000EF07AF98046281BA6
:1009FC000EF076F9011C40460DF0A0FB3860094959
:100A0C000DF0BCFE08490DF067FD08490DF096FB92
:100A1C00B06080BCB846F0BD80020020BC01002054
:100A2C00B801002000007A440000C8420080C04396
:100A3C0058020020F0B5D6464F464646C0B50400D5
:100A4C00407B0EF04DF9A768391C0DF097FE061C83
:100A5C006069311C0DF064F980466061E37B994656
:100A6C0019006420FFF7C0FB10F018F93A4A3B4B11
:100A7C000EF096FD10F0ACF9051C394B1860011CFA
:100A8C004046FFF701FD002800D0656160698023B6
:100A9C001B069C466544291CFFF7E2FC002800D08D
:100AAC006561216A301C0DF069FE051CA061A07BFC
:100ABC000EF0C6F8311C0DF00FFD2A490DF00CFD9F
:100ACC00804663699A4648460EF0BAF851460DF0D6
:100ADC0003FD10F035F9204A204B0FF0A3F910F06C
:100AEC0077F9011C40460DF01BF98046207C0EF076
:100AFC00A7F8291C0DF0F0FC1B490DF0EDFC011CB6
:100B0C0040460DF00DF98046184B1860011C381C3E
:100B1C000DF034FE45006D08207F0EF091F8291C75
:100B2C00FFF7B2FC00280DD14146381CFFF798FCAA
:100B3C0000280ED14146381CFFF7A6FC002802D035
:100B4C00FF2000E000202662E0BCBA46B146A84671
:100B5C00F0BD0120F7E7C0469A9999999999B93F48
:100B6C0054020020000020410000C842B4010020C3
:100B7C0010B50F4B1B78002B00D110BD0D4801F0A8
:100B8C005DFA06E0FFF728FE0A4801F065FA002836
:100B9C0009D0094B1B78002BF4D0012BF4D107485A
:100BAC0000F08CFDF0E7024B00221A70E5E7C0461E
:100BBC0000000020F802002048020020C0010020A4
:100BCC0070B50400C378002B2AD0807801210BF07B
:100BDC0059FD2000FFF72EFF45B22423E5546B1C72
:100BEC000CD0002D13D0012D1ED1207800210BF03C
:100BFC0049FD607801210BF045FD15E020780121BD
:100C0C000BF040FD607800210BF03CFDE9E720780B
:100C1C0000210BF037FD607800210BF033FDE2E78B
:100C2C00807800210BF02EFD70BD0000F0B597B060
:100C3C000400C378002B54D02C4901AE30000BF0CB
:100C4C009FF8617B0DAD0A2228000BF0BDF829003E
:100C5C0030000BF014F928000BF044F8244F390045
:100C6C0030000BF013F9A16810AD022228000BF034
:100C7C00D1F8290030000BF002F928000BF032F803
:100C8C00390030000BF002F92423E15613AC0A2290
:100C9C0020000BF0ACF8210030000BF0F0F8200035
:100CAC000BF020F81348292103F046F8002804D152
:100CBC0001A80BF017F817B0F0BD04AC0E4A0D49A3
:100CCC001723200003F0E6F8200003F002F80028B8
:100CDC00EED0310020000AF045FF200002F0ECFFBE
:100CEC00E6E7064906480BF05EF8E4E78C110108CC
:100CFC003C0F0108B0040020400F01084C0F010804
:100D0C00A8010020F0B5CE46474680B583B001213E
:100D1C0034200BF037FC564D0423AB70002104201B
:100D2C000BF0B0FC032398462B70002103200BF032
:100D3C00A9FC02276F70002102200BF0A3FC0121FB
:100D4C0004200BF01FFC012103200BF01BFC0121E4
:100D5C0002200BF017FC474CC023A3700021C020CD
:100D6C000BF090FCC12323700021C1200BF08AFCF6
:100D7C00C22363700021C2200BF084FC0121C0202F
:100D8C000BF000FC0121C1200BF0FCFB0121C22067
:100D9C000BF0F8FBC4232B730021C4200BF0F2FBE7
:100DAC00C52323730021C5200BF0ECFB0021C320CD
:100DBC000BF0E8FB03212B200BF0E4FB03212C2090
:100DCC000BF0E0FB2C4E44230522F254013302328B
:100DDC00F2540133013AF254B9334232B354013272
:100DEC00B354023AB3543000FFF78CFC2349082368
:100DFC009946B144484601F0FBFD2821484602F0D3
:100E0C0003FA1F4B1F4A204813210091494600F05A
:100E1C0037FC1E4BB422B3501D491E4E300002F05D
:100E2C007FFE1D49300002F07DFE1C4A0123137029
:100E3C004246AA730732EA732F7423326A732F77F0
:100E4C00A3734246E27323741B3363732777962193
:100E5C00134C0332890120000AF0BAFD114920001D
:100E6C000AF08AFE03B0C0BCB946B046F0BDC0461D
:100E7C008002002058020020F0020020D84801080F
:100E8C004815010894130108C0010020492E0008E0
:100E9C0001060008A80200204906000850020020A4
:100EAC0090090020580F010810B5FFF7EFFCFFF771
:100EBC004BFDFFF707FDFFF75DFD0BF03BFC0E4B09
:100ECC001B68C01AFA239B00984202D8FFF750FE09
:100EDC0010BD0BF02FFC084B1860084C2000FFF7DE
:100EEC006FFE0748FFF76CFE2000FFF79FFE054BD7
:100EFC0001221A70EAE7C046A401002080020020FB
:100F0C00580200200000002010B5FFF745FC10BD72
:100F1C0010B5FFF7B9FB10BD30B585B004000B0060
:100F2C00283BDDB2252D00D995E0AB005D48C358B8
:100F3C009F4601210BF026FB0135EDB2152D0CD887
:100F4C0063192C331878FF28F6D00F2DF1D9022114
:100F5C000BF018FBF0E70025F0E701209EE01000F5
:100F6C00431E9841C0B2504B996800915C680134A3
:100F7C00002A0AD00123C01A6043FA218900FFF726
:100F8C00A9F8009B0193002209E00023F3E7019BE1
:100F9C0000995B1AD218009B019390420BD9424BDB
:100FAC009B6800930199009B9942F0D2019BE31836
:100FBC0000995B1AEEE7012070E010000BF0BEFB0D
:100FCC0001206BE0022A12D80523374A916802915E
:100FDC0054680134002B0CD00120181A6043FA21FC
:100FEC008900FFF777F8029B039300220BE00223A2
:100FFC00EBE71800F1E7039B02995B1AD218029BEE
:10100C00039390420BD9284B9B6802930399029B44
:10101C009942F0D2039BE31802995B1AEEE7012088
:10102C003CE0002A0DD13F230B40E4182C342078EF
:10103C0001210BF0A7FA207800210BF023FB0120F3
:10104C002CE03F230B40E3182C33187802210BF0D3
:10105C0099FA012022E03F291FD93F230B40E018C9
:10106C002C300578FF2D1BD0302008420AD0102BD5
:10107C000ED028000BF030FB431E98412723E05480
:10108C0001200BE0110028000BF0FCFA012005E018
:10109C000AF0E0FFEDE7012000E0002005B030BDD4
:1010AC000120FBE72C1A010810E000E070B582B0BB
:1010BC00060014001D001439CBB20C2B59D8990022
:1010CC002D4B5B589F46002C08D029782B480022CA
:1010DC0002F000FA0135013CE4B2F4E7012049E0EA
:1010EC008369002B02D103689B68836133685A784B
:1010FC004921300002F096F8204802F0AFF90120A7
:10110C0038E04A2102F08EF8012033E003681B7BA3
:10111C00022B04D0032B02D0012B00D00023B16989
:10112C006A4600910120107153711448019A02F023
:10113C00B1F933681A784921300002F073F87469F8
:10114C0033689A7800232C213000A047012011E04D
:10115C0044690368DA7800232C21A04733685A7855
:10116C004921300002F05EF8044802F0B2F9012087
:10117C0000E0002002B070BDC41A01083004002049
:10118C0010B535240155362142543722835410BDF5
:10119C0070B5002400E00134C368A3420CD9856803
:1011AC0063001B199B00EE18EB5C8B42F3D1737838
:1011BC009342F0D1200001E00120404270BD10B5F7
:1011CC00836B9B6801219847002010BD10B5836B81
:1011DC009B6802219847002010BD10B5836B9B685B
:1011EC0003219847002010BD836B9B7801221000CF
:1011FC0018401A4200D170470120FCE710B50400DA
:10120C00FFF7F2FF002805D0636B6269934202D0AE
:10121C00A366002010BDA36EE3660120FAE710B5AB
:10122C000400FFF7E1FF002800D110BD636BE366FB
:10123C000120FAE710B50400FFF7D6FF002801D013
:10124C00636BE366002010BD10B50400FFF7CCFF04
:10125C00002807D0A36E002B05D0636BE366002338
:10126C00A366012010BD636B6269934201D000201C
:10127C00F8E7A3660020F5E710B50400FFF7B4FF0C
:10128C00002808D0626B63699A4205D02522A35CC2
:10129C000133A354002010BD0120FCE700787047F7
:1012AC0010B5FFF7FBFF20239843C0B2002819D0DC
:1012BC005A2819D8412819D34138C3B2192B05D84B
:1012CC0098000C4B1B589F46022000E0012010BDDB
:1012DC000520FCE70520FAE70620F8E70620F6E7EC
:1012EC000420F4E70020F2E70120F0E70120EEE70C
:1012FC000320ECE7F81A0108F0B5C64600B5060065
:10130C0088460800FFF7CAFF07002723F05400287F
:10131C001DD043465D1C00240AE0013536193C36CD
:10132C00002333704346E81A80BCB846F0BD013543
:10133C002800FFF7B3FF0028F0D08742EDD0282C0F
:10134C00F5D8631C34193C342070DCB2EFE7002074
:10135C00EAE7000070B506000C000800FFF7A0FFDC
:10136C0005002000FFF79AFF3C220021B154030036
:10137C00413BDBB2192B05D8054ADA40D20701D51F
:10138C00280070BD61193000FFF7B6FF2D18F7E784
:10139C0021001402F8B50400002383632D2283542A
:1013AC00043A83542A27C35505328354416BFFF703
:1013BC00D1FF2063666B3000FFF770FF0500282318
:1013CC00E054E05520229543E554552D00D17EE0A4
:1013DC00002D5BD063699E421AD0A3699E421DD03A
:1013EC002A00413AD2B2192A52D801239340394AE1
:1013FC00134219D1384A134234D15B0348D52923FF
:10140C005322E254701CFFF749FF2A23E05433E0C7
:10141C000D32A35C01210B43A354DEE72D22A35C08
:10142C0002210B43A354DBE7701CFFF737FF292382
:10143C00E054B01CFFF732FF2A23E054F01CFFF7F6
:10144C002DFF2B23E054301DFFF728FF2C23E054F5
:10145C00412D01D0542D0FD1701DFFF71FFF2E23EE
:10146C00E05409E0701CFFF719FF2923E054B01C6D
:10147C00FFF714FF2A23E0542A23E25C013BE15CD2
:10148C002000FFF785FE002819DA00252800F8BD9A
:10149C0029232E22E254701CFFF700FF2B23E0546B
:1014AC00B01CFFF7FBFE2C23E054472D01D04D2D33
:1014BC00E2D1F01CFFF7F2FE2E23E054DCE7A26829
:1014CC0043001B189B00D318A3630125DEE70025FE
:1014DC00DCE7C046230008000800000270B50400D9
:1014EC000D004369002B0AD04363FFF753FF00281C
:1014FC0006D0A36B9B6829002000984700E00020D1
:10150C0070BD10B526230022C2540421FFF7E6FF5C
:10151C0010BD70B504000D00416BFFF71BFF636B32
:10152C001B18636303E0636B226B9B186363606B34
:10153C00FFF7B4FE55280AD0002808D02000FFF78A
:10154C0029FF0028EFD02000A8470028EBD070BD61
:10155C0010B50369002B05D043630023C366836673
:10156C00FFF7D7FF10BD000010B504000749FFF7C7
:10157C00EFFFE36E6361002B00D010BD0449200027
:10158C00FFF7E6FFE36E6361F7E7C046551200080C
:10159C002B12000870B505000E00446804E0210011
:1015AC002800FFF7D7FE24182000FFF777FE00284D
:1015BC0007D05528F3D1601CFFF770FEB042EED176
:1015CC0000E00024200070BD70B5060000250CE082
:1015DC000134F46170193C3000230370002D00D0ED
:1015EC000125280070BD0134F461F4692000FFF777
:1015FC0055FE0028EED02722B25C8242EAD07C282D
:10160C00E6D0282DEFD86B1C75193C352870DDB24F
:10161C00E9E770B50500446BC4612000FFF740FE9C
:10162C002418EC612000FFF739FE2723E85401341D
:10163C00EC612800FFF7C8FF70BD70B505000C0009
:10164C00FFF7E7FF00280AD0002C07D0013CE4B2DA
:10165C002800FFF7B9FF0028F6D100E0012070BD8B
:10166C0070B50500FFF7D5FF041E07D00024013428
:10167C00E4B22800FFF7A8FF0028F8D1200070BDC5
:10168C00F8B504000D0017001E00882200210BF095
:10169C0039FE6760A660069BE36025607C23FF2211
:1016AC00E254F8BD70B504002525002343550249CA
:1016BC00FFF74EFF605D70BD8512000810B5024942
:1016CC00FFF746FF10BDC046CB11000870B50400F3
:1016DC00002904D13C230022C254002070BD466B6B
:1016EC00056B41631100FFF7A8FF66632563F5E7FF
:1016FC0070B50400002904D13C230022C254002000
:10170C0070BD466B056B4163FFF7AAFF66632563EB
:10171C00F6E7000070B504000369002B09D008211E
:10172C00FFF7DCFE0025656102492000FFF710FF82
:10173C00256170BDE7110008F0B5C64600B5040080
:10174C0088460069002813D07C23E756022F24DC3E
:10175C000137E7546369A3677C23E6560130FFF732
:10176C009DFDA41923007033187074344346237004
:10177C0080BCB846F0BD5A1CA218110070310D780F
:10178C00E1180E00703635707432127874310A70AC
:10179C000133DBB2BB42EEDBDCE70023FAE710B52A
:1017AC000400FFF77FFF01002000FFF7C5FF10BD0D
:1017BC0070B504000D0000690130FFF76FFD0100EA
:1017CC000023032B09D8E2187E3212788A4202D009
:1017DC000133DBB2F5E77D22A354032B09D97D221B
:1017EC00A35C0133DBB2A354032B02D97D2300226B
:1017FC00E2547D23E35CE41823007E3318708234BA
:10180C00257070BD10B504000B212000FFF766FE9B
:10181C0000280BD108212000FFF760FE2000FFF705
:10182C00A3FE2000FFF76DFEFF28EDD010BD0000D9
:10183C0070B505000E001400FFF76CFF0023AB61C0
:10184C006B616B8400212422A9542B842E610E49D8
:10185C002800FFF77DFE0D492800FFF779FEEB6E9F
:10186C006B6104E02800FFF7CDFF013CE4B2002CD3
:10187C00F8D102E02800FFF7C5FF2800FFF741FE72
:10188C00FF28F7D070BDC046D91100082B120008F4
:10189C0070B504001500FFF77DFE011E05D02A006F
:1018AC002000FFF7C5FF012070BD0020FCE710B53C
:1018BC007C23C356002B01DA002010BDC218110086
:1018CC007031097874321278013B7C240355FFF790
:1018DC00DFFFF2E710B57E23C35C8B4207D00022FA
:1018EC007F23C35C8B4205D0FFF7D2FF10BD822350
:1018FC00C25CF5E78323C25CF6E7000010B5040078
:10190C0004E02000FFF7FDFDFF2818D10C2120007A
:10191C00FFF7E4FD002812D108212000FFF7DEFDBF
:10192C0007492000FFF714FEE36E6361002BE8D13A
:10193C0004492000FFF70CFEE36E6361E1E710BD84
:10194C00091200084112000810B50521FFF7C6FD69
:10195C0010BD03002E22805C0B290CD00C291ED04C
:10196C00042930D100282FD05A8C80181B8C984217
:10197C002BDA002028E0013024229A5C904201D01E
:10198C00002021E0598C5218188C824203DB002273
:10199C005A84002018E001315984012014E00028F9
:1019AC0015D15A8C002A07D11A8C2421595C8A42F1
:1019BC0006D9521A5A8407E0013A5A84013003E0DE
:1019CC0000225A8400E000207047FF20FCE7002032
:1019DC00FAE7000070B50400836B5D682E23C25CCF
:1019EC000C292CD88B001748C3589F462423E35C42
:1019FC00934202D801322423E254238C002B01D0D1
:101A0C00002013E0A16F2000FFF772FE208400205D
:101A1C000CE02000FFF79DFF08E0002D02D0638C46
:101A2C00D2182A702000FFF742FF002070BD200062
:101A3C00FFF78FFFFAE72000FFF78BFFF6E7002098
:101A4C00F4E7C046601B01082C23C05C704700689B
:101A5C00704710B50400FFF7FAFF5C23C35AFE2B46
:101A6C0002D82B23E05C10BD2B23E05C4000FAE78E
:101A7C00F0B5D6464F464646C0B584B004008A46FB
:101A8C0015001E000CAB1F880D9B002B1BD02000DB
:101A9C00FFF7DDFF81462000FFF7DBFF80462000CB
:101AAC00FFF7D2FF02000D9B03930297019600955E
:101ABC0053464146484600F0B4FB04B0E0BCBA467D
:101ACC00B146A846F0BD014B0D93E0E78C1101081F
:101ADC002D23C35CDB0705D52623C35C002B03D168
:101AEC00202000E000207047A020FCE7F0B583B078
:101AFC0004000D0016001F00FFF7EAFF010001971C
:101B0C000123009333002A002000FFF7B1FF03B03C
:101B1C00F0BD0000F0B583B00500FFF798FFAB6B8C
:101B2C005B68154A01921E681A795B793178994283
:101B3C0000D933703178914200D83270632B05D8BC
:101B4C00092B15D902276B46591D01E0032701A962
:101B5C0000F05CFF04003078390001F0B1FB0300A9
:101B6C000134A1B201222800FFF7C0FF03B0F0BD81
:101B7C0001276B46991DEBE7393939002D23C35CDE
:101B8C00DB0707D52623C35C002B01D0012002E024
:101B9C00212000E00120704710B50400012901D07C
:101BAC00002010BDFFF753FFA36B596800F020FF16
:101BBC00F6E770B50400012901D0002070BDFFF7D5
:101BCC0046FF05002000FFF744FF06002000FFF74A
:101BDC003BFF020023003C333100280000F0CAFE1A
:101BEC00EBE710B582B0040001290DD000291CD000
:101BFC000539C9B202291AD8FFF7D1FD2E23E15CB1
:101C0C002000FFF767FE0EE0FFF7B8FF23003C3320
:101C1C004022104381B20193012300930022200043
:101C2C00FFF726FF002002B010BD0020FBE70020CC
:101C3C00F9E710B582B00400012908D0002917D0AB
:101C4C000539C9B2022915D8FFF731FE0EE0FFF7AE
:101C5C0095FF23003C334022104381B201930123B2
:101C6C00009300222000FFF703FF002002B010BDFC
:101C7C000020FBE70020F9E710B5836B5B681A685E
:101C8C001C795B790B2921D00ED801291AD0002997
:101C9C002CD00539C9B202292AD82622835C594294
:101CAC004B418354002010E00C2909D12621405CC3
:101CBC0000280AD01178A14215D81370012004E035
:101CCC00002002E0FFF726FF002010BD2621405C1B
:101CDC000028FAD011780131C9B21170994200D99B
:101CEC0014700120F1E701391170E7E70020ECE7EF
:101CFC000020EAE7022901D000207047436B83677C
:101D0C00FAE770B504000D00FFF7A1FE06002E23C4
:101D1C00E25C012D06D0052D1DD029002000FFF717
:101D2C0059FE70BD638CD218D2B2A16F2000FFF7A0
:101D3C00CDFC0028F5D05C23F55A2000FFF789FE76
:101D4C00020023003D334100691A89B22000FFF7DD
:101D5C00CDFE0020E5E7638CD218D2B2A16F200033
:101D6C00FFF7B4FC0028DCD02E25615D638CC9180C
:101D7C00C9B22000FFF7E0FC615D638CC918C9B2E1
:101D8C002000FFF715FD3C23E15C2000FFF7A2FDCE
:101D9C00C7E7F0B5DE4657464E464546E0B585B03A
:101DAC0080460E0091461D000E9FAA23C35C9A46E6
:101DBC001A0053425341DBB29B464B199BB24A4625
:101DCC00013292B200924A4600F0F4FE002841D053
:101DDC0001241CE039780C4212D001339BB201363D
:101DEC00B6B26400E4B2002C01D101370134013DDC
:101DFC00ADB2002D04D0002AECD139780C42ECD0D5
:101E0C00002A0AD1A92241468A5C002A12D0002D50
:101E1C001CD03A7822400023EBE7AA2241465046D8
:101E2C008854F11A89B2002200924A46404600F0CA
:101E3C002AFEECE7AA3258468854F11A89B20022DD
:101E4C0000924A46404600F01EFEE0E7AA234246B6
:101E5C005146D15405B0F0BCBB46B246A946A0468B
:101E6C00F0BDF0B5D6464F464646C0B582B0814669
:101E7C008A4614001F000AAB1E880B9DFB1D9BB2EB
:101E8C00DB0898467B189BB2921992B20092220002
:101E9C0000F090FE00280CD10DE000953B002200D4
:101EAC0051464846FFF775FF45440134A4B2013E44
:101EBC00B6B2002EF1D102B0E0BCBA46B146A8468B
:101ECC00F0BDF0B5C64600B582B007000E00140098
:101EDC00984608AB1D884346CB189BB2521992B258
:101EEC000092220000F066FE00280CD10DE00022CA
:101EFC000092434622003100380000F0C4FD01344A
:101F0C00A4B2013DADB2002DF1D102B080BCB846F7
:101F1C00F0BDF0B5D6464F464646C0B582B0060079
:101F2C000D0014001F000AAB1B889946C9198BB20F
:101F3C0098464B46D21892B2009243462200290092
:101F4C0000F038FE002805D102B0E0BCBA46B1461C
:101F5C00A846F0BD002300933B002200290030006E
:101F6C0000F091FD4B46012BEED9023B9BB29946FA
:101F7C000134A4B2002B08D1002300933B002200B3
:101F8C002900300000F07FFDDEE701239A46009324
:101F9C004B4622002900300000F075FD4146013906
:101FAC0089B2534600934B462200300000F06BFD83
:101FBC004C44A4B2E0E710B582B003681B7CC46C3F
:101FCC005943C90089B264180094002101F0F8F853
:101FDC0002B010BDF0B5C64600B506005023C75C74
:101FEC000133C55C03685B7C984600242A00210001
:101FFC003000FFF7E0FF0134E4B20135EDB2A74247
:10200C0001D9A845F2D880BCB846F0BD10B503681C
:10201C001A7C5023C35C5A43D200C06C00210BF0D5
:10202C0071F910BD10B504005123C154836C1B68A9
:10203C009847A36C5B682000984710BD10B504004E
:10204C00AB23C35C002B04D100212000FFF7EAFF77
:10205C0010BDFFF7DBFFF7E770B50400FFF7BAFF21
:10206C005123E35C5022A55CED18EDB223685B7C38
:10207C00AB4209D9AB23E35C002B0AD12900200029
:10208C00FFF7D0FF012070BD200001F0C4F8002044
:10209C00F9E72000FFF7BAFFF0E7F0B5DE46574648
:1020AC004E464546E0B591B007910892190003934E
:1020BC001AAB1A8809921BAB1A880A921CAB1A88A5
:1020CC000B9207230B40A62282560592A72282561A
:1020DC000692AA22825C04920A0606D55A1C0C921D
:1020EC009D1C2E000D93804630E008220C921E00A1
:1020FC000D9380462AE0049B59425941C9B240468F
:10210C0000F03BFD4EE04B469A1992B2121992B276
:10211C00521992B20E9B591989B23B00404600F0FD
:10212C001CFD0F9BD91989B2091989B25B465A1942
:10213C0092B2491989B23300404600F016FD0134C1
:10214C00A4B2A245DFD85646013EB6B2079B0A9A06
:10215C009B1A9BB29A469B1B9BB29B46B5186D0073
:10216C00ADB2099B9C466544ADB243465B6F40469D
:10217C009847089B1C18A4B2059AA41AA4B20B99F0
:10218C00641AA4B2A31B9BB29946069BD71ABFB282
:10219C0073185B009BB2FF18BFB2002E25D00C9BAE
:1021AC009E42A8D000972B004A4659464046FFF75E
:1021BC00B0FE0499404600F0E0FC1823039A134249
:1021CC00C2D00D9B9E42BFD1D20803231340013BCA
:1021DC009BB2002251460E91B24659460F91A3462E
:1021EC0014003E002F001D00ABE73E004746039B4A
:1021FC009B0606D411B0F0BCBB46B246A946A0461D
:10220C00F0BD0221380000F0B8FC00962B004A46C5
:10221C0059463800FFF755FE0499380000F0ADFC24
:10222C00E8E7F0B5DE4657464E464546E0B587B082
:10223C0005000C0090461E0010AB1B88994611AB94
:10224C001B889A4612AB1B889B46139900F0E6FB41
:10225C00059040231F003740334205D0421CD30F5A
:10226C009B185B10E41AA4B2059B4B4509D2002FB6
:10227C0026D04B46181AC70F3F187F10BFB20593D4
:10228C0000E000270121280000F008FB139B4246C8
:10229C002100280000F06EFBE11B89B25B46029323
:1022AC0053460193059B0093330042462800FFF7E9
:1022BC00F4FE07B0F0BCBB46B246A946A046F0BD42
:1022CC004B460593DEE710B50400FFF7B7FE200080
:1022DC00FFF7C2FE0028FAD100212000FFF7A2FE72
:1022EC0010BD00000123037000487047AC030020B0
:1022FC0070B584B004000D000A480B49009313001C
:10230C000200200000F0B4FF0F266E443000FFF7EF
:10231C00E9FF0100054B32780095200000F05EFDCE
:10232C0004B070BDD52F000835300008EF2B000825
:10233C00405C70474218435C1B025078C01880B256
:10234C0070470020704770B504000D000021280074
:10235C00FFF7EEFF207001212800FFF7E9FF607006
:10236C0002212800FFF7E4FFA07003212800FFF7EB
:10237C00DFFFE07004212800FFF7DAFF2071052150
:10238C002800FFF7D5FF607106212800FFF7D0FF6A
:10239C00A07107212800FFF7CBFFE071082128006E
:1023AC00FFF7C6FF207209212800FFF7C1FF6072FA
:1023BC000A212800FFF7BCFFA0720B212800FFF7B1
:1023CC00B7FFE0720C212800FFF7B2FF20730D213C
:1023DC002800FFF7ADFF60730E212800FFF7A8FF60
:1023EC00A0730F212800FFF7A3FFE0731021280032
:1023FC00FFF79EFF207411212800FFF79BFF6082DE
:10240C0013212800FFF796FFA08215212800FFF763
:10241C0091FFE08270BD70B50400037B06683578CF
:10242C001D41E8B25A18D2B2072A0AD90820C01A9C
:10243C00C0B2731C2360737883402B43D8B2083A24
:10244C00D2B201235B428B409843227370BD70B5AE
:10245C000500040078348167002323739033C15C3A
:10246C002000FFF7D8FFA0729123E95C2000FFF752
:10247C00D2FFE072AA23EB5CA3735A425341E3737D
:10248C0070BD10B50C00FFF7C6FF013CE4B2012390
:10249C00A340C01A40B210BD012B06D0022B07D0AE
:1024AC00002B08D1801880B27047401880B2FBE72F
:1024BC00801A80B2F8E7401A80B2F5E7012B06D0FB
:1024CC00022B07D0002B08D1401880B27047801A1D
:1024DC0080B2FBE7401A80B2F8E7801880B2F5E7CB
:1024EC00F0B5DE4657464E464546E0B589B00792F4
:1024FC00030078331A7A90465B7A03938946060078
:10250C001BE04B46059321E033007833997BAA23DB
:10251C00F15453460093059B0699300000F0B3FA32
:10252C00A94541D343461C1B4C44E3B29946039B3B
:10253C000133DBB2039300239846330078339C7A43
:10254C004346E51AEDB2A945DBD305953300783344
:10255C009888DA88049241464FB26A460C2151564B
:10256C008B461B7C9A460A003900FFF7A7FF0690A2
:10257C0053465A4639000498FFF78EFF0200079B1A
:10258C00002BC1D1330078335B7B002BC8D13300D7
:10259C007833D97BAA23F15453460093059B0699B3
:1025AC00300000F070FABBE7594637004E46320057
:1025BC0042443B0078331A72597209B0F0BCBB46E6
:1025CC00B246A946A046F0BDF0B5DE4657464E468B
:1025DC004546E0B587B0040005007835FFF737FFB6
:1025EC008323E3569A469223E15C2800FFF749FFC8
:1025FC0081469323E15C2800FFF743FF06009423F8
:10260C00E15C2800FFF73DFF03900A23EB56984648
:10261C00002B78DD5644F6B2764277B22B7C9B4683
:10262C00A8883A004946FFF749FF05900490A88016
:10263C00E8885B463A004946FFF72EFF0200E88027
:10264C005B46022B67D013D8002B21D0012B0DD168
:10265C00059B5146591A89B2013101339BB246464A
:10266C00B6B2801980B289B2049119E0059B17E0CB
:10267C00032B0BD1059B53449BB2424692B2821A58
:10268C0092B20132013080B292B209E0059B07E0B0
:10269C0043469BB205998C4663449BB2504480B22E
:1026AC0000900499200000F085FA00282BD023001C
:1026BC00783300221A725A728E23E15C2800FFF7DD
:1026CC00AAFE07008F23E15C2800FFF7A4FE06009A
:1026DC00002239002000FFF703FF01223100200007
:1026EC00FFF7FEFE01212800FFF795FE0028EFD131
:1026FC00230078335B7A5BB25345DDDB2300783300
:10270C009A7BAA23E254039807B0F0BCBB46B246AE
:10271C00A946A046F0BD434699B2059B591A89B209
:10272C00013101339BB25246821A92B2013201300E
:10273C0080B292B289B20491B2E770B50D00046F09
:10274C001734FF2914D8602903D9A023C35AE418DD
:10275C0006E0402904D99E23C35AE41800E0E4188B
:10276C006378002B20D02278AA42F8D1A01C1CE060
:10277C00A223C35AE418260000213000FFF7DAFD2B
:10278C00241802213000FFF7D5FD04368542F3D81A
:10279C0001E0A378E418227812026378134305D081
:1027AC009D42F6D1E01C00E0002070BD0020FCE74B
:1027BC0010B504007C2021527E21625219002000A9
:1027CC00FFF7BBFF011E04D02000FFF7FDFE80B217
:1027DC0010BD0020FCE770B50400FFF7AEFF011E32
:1027EC0016D02000FFF733FE250078359223E15CEC
:1027FC002800FFF746FEA823E054153BE15C2800B7
:10280C00FFF73FFE9423E15C2800FFF73AFE70BD12
:10281C000020FCE7F0B5C64600B504000D0082238D
:10282C000022C25400F05AFB40235B42984600271A
:10283C00002601E0F619B6B26368297820009847A3
:10284C00144A90420FD00135134A9042F4D0010043
:10285C002000FFF7C0FF87B243464033EAD1A823DC
:10286C00E3569846E6E78223E356002B0ED0F71B7F
:10287C00BFB29BB2DB199BB2A822A656B6B2F61811
:10288C00B6B24346002B01DD4644B6B2300080BCE4
:10289C00B846F0BDFFFF0000FEFF00008523C154C9
:1028AC007047F8B504000D0016001F008823C35CA8
:1028BC00022B1BD008D8002B0DD0012B0FD1436F4E
:1028CC0098472D1AADB20AE0032B08D1436F9847F5
:1028DC002D18ADB203E0436F98473618B6B23B00E3
:1028EC00320029002000FFF763FFF8BD436F9847C3
:1028FC00361AB6B2F3E70000F0B5C64600B50400D0
:10290C000F0016001D0000F0E9FA0023984609E0BC
:10291C00032B04D1361AB6B201E03F18BFB24044C3
:10292C0083B2984663682978200098470F498842FB
:10293C0018D001350E498842F4D00300320039001A
:10294C002000FFF7AEFF8823E35C022B07D0DFD813
:10295C00002BE2D0012BE2D13618B6B2DFE73F1ADA
:10296C00BFB2DCE7404680BCB846F0BDFFFF0000BC
:10297C00FEFF000010B5024C4460FFF7BDFF10BD18
:10298C00492E000830B5036F002B1DD09923C25679
:10299C000D33C2540C3BC356A72143540239415C3E
:1029AC00002911D0012910D09621415698240457A2
:1029BC000D19AA4204DAC9B2E2B28918A6228154CE
:1029CC00A34201DDA723C45430BD9A3141568A423B
:1029DC0001DAA62281549C2282569342F4DDA7236D
:1029EC00C254F1E7014B43677047C0464F230008C0
:1029FC0010B50400036F8B4206D001678C30FFF7D3
:102A0C00A2FC2000FFF7BEFF10BD000010B5024B6A
:102A1C004360FFF7FFFE10BD312E000810B5024BCE
:102A2C004360FFF7F7FE10BD492E000830B505884E
:102A3C000C886419A4B2A54203D99D4210D25C1E25
:102A4C00A4B29D420ED294420ED9954200D32A00D4
:102A5C009C4200D8230002809B1A0B80012030BDC1
:102A6C001500EEE70020FAE70020F8E730B583B058
:102A7C0006AC25785624045B121B92B2446C00956C
:102A8C00A04703B030BD70B584B0040008A8057829
:102A9C000E206844018003A90A800A226A4413802C
:102AAC00A423E35C002B30D01388002B2DD0012BFA
:102ABC0003D9022D2BD0032D30D001231E002E4024
:102ACC002B4233D16333E25A03AB1B889A421CD896
:102ADC006622A25A934218D26223E35A6022A25A67
:102AEC000A2169440E206844FFF7A0FF00280CD08F
:102AFC00A36C9D680A236B441B8803AA12880E21C1
:102B0C006944098800962000A84704B070BD02886B
:102B1C00D31A9BB2038001330380CEE703A90A8842
:102B2C00D31A9BB20B8001330B80C6E76023E25AA9
:102B3C00523B6B441B889A42E7D86222A25A9342BA
:102B4C00E3D26623E35A6422A25A0A21694403A8F9
:102B5C00FFF76CFF0028CBD1D7E710B582B000246B
:102B6C000094FFF790FF02B010BD10B582B00124A5
:102B7C000094FFF788FF02B010BDAA23C1540229AC
:102B8C0001D90122C25470478A4205D2834209D826
:102B9C009A4209D9012006E0834207D99A4207D903
:102BAC00012000E0012070470020FCE70020FAE73C
:102BBC000020F8E770B506000C001D0004AB1B8864
:102BCC006621415A6420305AFFF7DEFF002807D0F7
:102BDC006223F15A023BF05A2B002200FFF7D4FF7C
:102BEC0070BDF0B5C64600B5884606AC26780727FA
:102BFC0017400124BC40E4B2AA25415D01291DD92E
:102C0C00002501291CD007218A430168097C4A430D
:102C1C0092B2C16C8C46424411006144002E19D111
:102C2C000A782A43D2B20A7062400A700131013B21
:102C3C009BB2002BF4D180BCB846F0BD2500E0E778
:102C4C000024E0E701251AE06D00EDB26400E4B267
:102C5C00002BF0D00A782A43D2B20A7062400A7074
:102C6C007A1C072637001740013B9BB21642EBD16A
:102C7C005222825A8918AA22825C012AE2D9012A9C
:102C8C00E6D00124E4E770B501685023C35CDC0096
:102C9C00542284520A7CD200522402535122855C65
:102CAC00EA00043402535E194C7CA64201DD641B1D
:102CBC00A3B2DB009BB25824025302340253D21845
:102CCC0002538A8A5C23C252CA8A0233C25270BD32
:102CDC0010B5FFF7D8FF10BD10B582B004006A2301
:102CEC00C35A6C22825A6821415A6E20205A009095
:102CFC002000FFF75FFF002804D1A4230022E25438
:102D0C0002B010BDA4230122E254443BE25A083322
:102D1C00E35A9A4201D26022A3526223E25A083348
:102D2C00E35A9A4201D96222A3526423E25A08332D
:102D3C00E35A9A4201D26422A3526623E25A083320
:102D4C00E35A9A42DCD96622A352D9E710B5002384
:102D5C0060228352043A815A0632815202328352E3
:102D6C005E33C35A0A3A825A934202D39A1A6421A6
:102D7C0042525822825A9B1A66228352FFF7ACFFAA
:102D8C0010BD30B583B006AC25785E24045BA21A66
:102D9C0092B25C24045B611A89B2002D08D1013A0D
:102DAC0092B2C91A89B20095FFF760FE03B030BD2C
:102DBC00012DF8D1013989B2D21A92B2F3E710B5CC
:102DCC0000236822835204328352013B023A83521D
:102DDC0004328352836C5B68984710BD70B5040055
:102DEC000498002525676364E1645023E2540133A1
:102DFC00E5543433E5542433E554043BE554A43B07
:102E0C00AA22A3540132A354A0640368200098475B
:102E1C002000FFF7D4FF2000FFF7E4FD8823E554E2
:102E2C0070BD0000002903D00A2903D008007047A8
:102E3C000148FCE70048FAE7FFFF000010B504006A
:102E4C00002940D00A2940D02623C35C002B2BD16B
:102E5C00FB2909D8F7290FD8EF2913D8DF2917D860
:102E6C00BF291BD808002DE026330522C254253B70
:102E7C000B402384174825E026230422C254233B0D
:102E8C000B40F6E726230322C2541F3B0B40F0E70E
:102E9C0026230222C254173B0B40EAE726230122C9
:102EAC00C254073B0B40E4E7013BDBB226228354C0
:102EBC00028C920192B202843F200840104320847D
:102ECC00002B04D110BD0448FCE70348FAE7014885
:102EDC00F8E7C046FEFF0000FFFF0000262300229B
:102EEC00C254704710B50A00046900232021A04782
:102EFC0010BD10B5130004690A001721A04710BDBE
:102F0C0000B583B06B46DA1D11700121FFF7F1FF9C
:102F1C0003B000BD10B50A00C46800231521A047FA
:102F2C0010BD10B50A00C46800231621A04710BDBF
:102F3C0010B51300C4680A001721A04710BD10B5C6
:102F4C00C468002300221821A04710BD10B5C46826
:102F5C00002300221921A04710BD70B582B00600D5
:102F6C000C0009E015292DD32A786B46DA71F56827
:102F7C0000233000A84702342178651C19290FD88A
:102F8C00182918D21629EDD917291BD163786A464E
:102F9C000732137001213000FFF7CAFF0234EBE750
:102FAC00FE290FD12A786B46DA712921300000F006
:102FBC0039F90234E0E7F468002300223000A0471E
:102FCC002C00D9E702B070BDF0B583B006000F003D
:102FDC00150001930C00143CE3B2052B20D89C0087
:102FEC00104B1B599F460021FFF77CFF2900300036
:102FFC00FFF786FF012011E00021FFF773FF290086
:10300C003000FFF77DFF012008E00121FFF76AFF88
:10301C003469019B2A0039003000A04703B0F0BD91
:10302C000020FBE76C500108F0B5C64600B5050062
:10303C0014001E000939CBB2062B00D97BE0990095
:10304C003E4B5B589F463E4900F086F8012080BC01
:10305C00B846F0BD00F085F83A492800FFF77DFF2F
:10306C000120F4E7002A04D13749FFF776FF01204D
:10307C00EDE73649FFF771FF0120E8E7002A08D198
:10308C003349FFF76AFF2B689A7C2223EA5401200C
:10309C00DDE73049FFF761FF2B68DA7C2223EA5425
:1030AC000120D4E7FFF74BFF81212800FFF732FF07
:1030BC00A1082800FFF735FF2800FFF747FF012084
:1030CC00C5E7FFF73CFF7379DB00DBB22222AA5C79
:1030DC00D318DBB29846190910231943C9B228003A
:1030EC00FFF718FF0F21434619402800FFF712FF86
:1030FC00B379502149421943C9B22800FFF70AFF9E
:10310C003779FF00FFB236684346FB18842B04D98D
:10311C007C277F424346FF1AFFB232003900280059
:10312C00FFF706FF013CE4B2002CF6D12800FFF7B4
:10313C000DFF01208BE7002089E7C0468450010871
:10314C00C8500108A0500108F8500108F0500108BF
:10315C00E8500108E050010801608A7C2223C25427
:10316C00704770B504004569002300222821A84748
:10317C00E5680023002214212000A84701224B21DE
:10318C00200000F04FF823681A792921200000F064
:10319C0049F800224B21200000F044F823681A79EA
:1031AC002921200000F03EF801224B21200000F0E4
:1031BC0039F823685A792921200000F033F870BDC2
:1031CC0010B582B01C006B4659719A711C71049A2F
:1031DC000092846801220F21A04702B010BD10B5E7
:1031EC008468002300220921A04710BD10B5846813
:1031FC00002300220A21A04710BD10B50A008468E4
:10320C0000230B21A04710BD10B50A0084680023D1
:10321C000E21A04710BD10B5846800230022102198
:10322C00A04710BD10B544690023A04710BD002075
:10323C0070470000002303600C4A8260C260026188
:10324C00426123228354033283548361FF33023A55
:10325C00835404328354002305E0C2182C32FF211E
:10326C0011700133DBB2152BF7D970473B320008D4
:10327C00F8B504000F0016001D00FFF7DBFFA76078
:10328C00E6602561069B63612000FFF7A8FFF8BD8F
:10329C0030B5002408E0891AC9B20133DBB291427F
:1032AC00F9D243550134E4B2022C04D82500034B67
:1032BC001A5D3023F3E70023C37030BD00510108C1
:1032CC0010B50324641AE4B2034B01001800FFF795
:1032DC00DFFF001910BDC0462C040020F8B5040017
:1032EC000F0015001E00534B836703007833012237
:1032FC001A7100225A71783200210AF003F8FF2368
:10330C002B403D2B2FD84C4A9B009B58E022D200DF
:10331C002A401343A366FF223A403D2A3CD8464B31
:10332C009200D358E022D2003A401343E366FF22C6
:10333C0032403D2A49D8404B9200D358E022D2006B
:10334C00324013432367FF23069A13403D2B55D875
:10335C00394A9B009B58E022D20006990A4013433D
:10336C0063672000F8BDC0222A40C02A02D0012386
:10337C005B42CFE7CF2B0CD83F232B402F4A9B002F
:10338C009A582D4B9200D258E023DB002B4013436C
:10339C00C0E701235B42BDE7C0233B40C02B02D0FA
:1033AC0001235B42C2E7CF2A0CD8813B3B40234A26
:1033BC009B009A58204B9200D358E022D200174021
:1033CC003B43B3E701235B42B0E7C0233340C02B40
:1033DC0002D001235B42B5E7CF2A0CD8813B3340A6
:1033EC00164A9B009A58144B9200D358E022D200F4
:1033FC0016403343A6E701235B42A3E7C02206999C
:10340C000A40C02A02D001235B42A9E7CF2B0DD87A
:10341C003F230B40094A9B009A58074B9200D35804
:10342C00E022D2000D0015402B4399E701235B42AB
:10343C0096E7C04600093D006C5C01082C5C010855
:10344C0000B583B004483E230093313B0C220B2182
:10345C00FFF744FF03B000BD3004002010B582B06C
:10346C00040000235D2283546946094A009201221C
:10347C000A714B71783005320AF016F87C23E35C44
:10348C007D22A25CA16F200000F060F802B010BD9C
:10349C0000093D0010B582B0040000910192826FCA
:1034AC008A420FD0200078300622694609F0FCFFD2
:1034BC007C23E35C7D22A25CA16F200000F046F827
:1034CC0002B010BD7C23C25A6B469B889A42E9D14C
:1034DC00F6E7704710B582B06B46D971002A09D057
:1034EC0000226B46DC1D0123210000F05BF92078E3
:1034FC0002B010BDDA1DF4E710B5FFF7A1FF10BD47
:10350C00012A08D0022A0ED0C36849434A00521837
:10351C009343C36006E0C36849434A00521893437F
:10352C001943C1607047C36849434A0051188B4323
:10353C001343C360F6E7000010B5031E024A10687F
:10354C0001D004F0B5F910BD58000020F0B5CE46FE
:10355C0000B586B0061E00910192029300D194E052
:10356C008349C06E06F06BFE05008249B06E06F012
:10357C0066FE04008049306F06F061FE07007F494B
:10358C00706F06F05CFE0390002D7BD0002C79D080
:10359C00002F77D02100280006F07EFE814603998B
:1035AC00380006F079FE07000100484606F074FE6C
:1035BC0070664B46002B6CD0002F6AD0002868D068
:1035CC00736F013369D08023DB02B36130608223D7
:1035DC005B007360FFF7B0FF4308009A934260D81A
:1035EC000023F3610023B360019B002B00D085E026
:1035FC007361002333610023B3620733F362E0236A
:10360C00DB00F360029B002B00D086E0803333623A
:10361C000023736273635649F06E06F0EFFD554953
:10362C00B06E06F0EBFD5449306F06F0E7FD3369E0
:10363C00002B00D074E00222316F08090F230340E5
:10364C00042B00D96EE04E489B0018580F230B40FA
:10365C004C499B005958FFF753FF4849706F06F0CF
:10366C00CDFD3268484B9A425ED03268474B9A4245
:10367C006CD0300004F032F93268136840210B43EF
:10368C00136002E0424808F0D3FC06B080BCB94697
:10369C00F0BD404808F0CCFCF7E780239B00B361F9
:1036AC0094E78308009A934202D80823F36199E7C0
:1036BC00C308009A934202D81023F36192E70309DE
:1036CC00009A934202D81823F3618BE74309009ABE
:1036DC00934202D82023F36184E78309009A934232
:1036EC0002D82823F3617DE7C009009B984202D8D9
:1036FC003023F36176E73823F36173E7019B022BE8
:10370C0008D001237361019B012B00D871E70223C0
:10371C00336170E700237361F9E70023336277E7C5
:10372C00012289E7002091E71B4B196C8022520182
:10373C0011431964196C114004910499196B0A43D3
:10374C001A631A6B15490A401A638EE7124BD96B30
:10375C008022D2011143D963D96B1140059105998F
:10376C00D96A0A43DA62DA6A0D490A40DA6280E7FA
:10377C0088540108EC5301087453010808530108DC
:10378C001C0000203C520108003001400038004071
:10379C006C0F01089C0F010800100240FFEFFFFFA7
:1037AC00FFBFFFFFF0B5D6464F464646C0B588462C
:1037BC0091461F1E066805D10220E0BCBA46B146F0
:1037CC00A846F0BD01F004FE82462FE0002807D188
:1037DC00B3680222100018401A42F7D00120F5E716
:1037EC004346002B05D01B7801229446E0443373EA
:1037FC0003E0FF23FBE7002B07D1B46801252B0066
:10380C0023402542F7D00300F5E74B46002B13D09D
:10381C00337B4A46137001239C46E14401F0D8FDEA
:10382C005346C01AFA239B00984207D23B00013F33
:10383C00002BCDD1002005E0337BEFE7012001E028
:10384C000029BAD0B3688022110019401A42F7D06F
:10385C000121F5E7F8B504000800002525700121C9
:10386C0061700226A6700536E67003272771667113
:10387C00A571E17131312172FA2189006181FA213E
:10388C00A181256125776577A57725626562A5629B
:10389C00E56225636563A563E56325646564207053
:1038AC006270A370F83908F06DFE6078022108F0A0
:1038BC0069FEA078022108F065FE2000F8BD00002A
:1038CC0070B5040008F036FF2369C01AE3799842FA
:1038DC0001D2002070BD08F02DFF2061A579A078E1
:1038EC0008F0FAFE4540207808F0F6FEAD004000E6
:1038FC0005436DB2607808F0EFFE284341B2C0B2C8
:10390C00E070237902005A40920712D09B000322E8
:10391C000A401343DBB223714B2B04D0872B05D009
:10392C000023237707E0B433237704E0863B237727
:10393C0001E000232377637980084340DB0712D52D
:10394C0008F0F8FE6369C01A237A98420ED963799D
:10395C00DB0705D40123637108F0ECFE606105E020
:10396C0006236371F8E708F0E5FE60616379062BC6
:10397C0005D89B00684AD3589F4607236377A38BCF
:10398C00002B00D1A3771C202056002860D0637F29
:10399C00002B44D10533A377236A002B61D09847C1
:1039AC00012056E0637F043BDBB2012B05D9637F1A
:1039BC00032BE4D102336377E1E708F0BBFEA36984
:1039CC00C01A63899842F2D9002363710633637776
:1039DC00D5E70723637100236377D0E70323637173
:1039EC00637F063BDBB2012B02D902236377C6E768
:1039FC0001236377C3E704236371013B6377236B74
:103A0C00002B08D008F096FEA369C01AA38998422F
:103A1C0001D20423637708F08DFEA061AFE71A1F73
:103A2C00D2B2012A0CD9A27F062A09D0052B1CD9A7
:103A3C000723A377A36A002B19D09847012008E02D
:103A4C000623A377636A002B0DD09847012000E072
:103A5C000020A37F072B00D93CE79B002F4AD358AB
:103A6C009F460020F5E70020F3E70020F1E7002057
:103A7C00EFE7637F032B08D0042B00D02AE7032346
:103A8C00A377236B9847012024E70223A377E36AEB
:103A9C00002B00D11EE7984701201BE7637F022B08
:103AAC000BD0062B00D015E70423A377A36B002BB8
:103ABC0000D10FE7984701200CE70123A377636B34
:103ACC00002B00D106E79847012003E7637F012B09
:103ADC0000D0FFE6A377E36B002B00D1FAE6984702
:103AEC000120F7E6637F013B012B00D9F2E60123AD
:103AFC00A377236C002B00D1ECE698470120E9E674
:103B0C00637F012B00D0E5E6A377636C002B00D11B
:103B1C00E0E698470120DDE6045101082051010838
:103B2C00016270474163704710B582B06B46D97122
:103B3C0007330268546801221900A04702B010BD77
:103B4C0010B5006A002803D003689B68984710BD25
:103B5C000020FCE710B50400036A002B0AD00020FB
:103B6C005860206A92B201F081F8236A5B68002BDE
:103B7C0004D110BD013343600020FAE701236360D8
:103B8C000020F6E710B5006A002802D0012100F0F1
:103B9C0071FE10BD00B583B001226B46D91D00F03B
:103BAC0071FD012803D16B46D87903B000BD01200B
:103BBC004042FAE710B5006A002802D0FFF7EAFF8E
:103BCC0010BD01204042FBE770B50400006A0028DC
:103BDC000CD0FFF7DFFF0500431C01D1280070BD9E
:103BEC00206A0169013900F00DFEF7E70025F5E7C1
:103BFC0070B504000E0015000F4B036000234360EA
:103C0C000E4B0360FA239B0083600D4B036028204E
:103C1C0008F0BAFD206200280BD02822310009F0F0
:103C2C0043FC200010300C22290009F08EFB0023ED
:103C3C002377200070BDC046985D0108B05D010877
:103C4C0048510108064B036000234360054A02609B
:103C5C00FA2292008260044A026003620374704785
:103C6C00985D0108B05D010848510108036A002BFA
:103C7C0001D01869704701204042FBE7036A002B12
:103C8C0001D0D86970470020FCE7000070B5050032
:103C9C00036A002B0CD0FFF7F1FF04002800FFF79C
:103CAC00E5FF201A80231B02984200D3014870BD07
:103CBC000020FCE7FF7F000010B50400006A00281C
:103CCC0006D000F01FFE206A08F068FD0023236276
:103CDC0010BD036A002B04D0587A431E9841C0B221
:103CEC0070470020FCE70000084B00225A719A71C3
:103CFC009A721A73022119612E315A54044999632C
:103D0C00DA630449996341215A547047B004002086
:103D1C00985D01088C51010870B504000D0001225A
:103D2C0001F05EFA002801D0012070BD00222900AC
:103D3C00200001F055FAF8E770B504000D000300FF
:103D4C0038335B7A002B08D12A000121200000F0C7
:103D5C0027FA002805D1002070BD383000F0D2FDC4
:103D6C00F2E72500103521002800FFF7D5FF0028C9
:103D7C0001D10020F0E720003830290000F056FC7B
:103D8C00002801D00120E7E70020E5E70C4B036099
:103D9C004B6843600B4B03600B7A03724B7A437294
:103DAC00CB68C3600B6903614B6943610B7E03767F
:103DBC00CB69C3610B6A03624B6A43627047C046AE
:103DCC00985D01088C510108F0B5DE465746464611
:103DDC00C0B59AB08046150001929A4610AF2B4898
:103DEC00109000237B602A4A10927B7206AE0690DC
:103DFC007360069273721031380000F017FC1DE0EE
:103E0C0001351BE002AB9B4622002900180009F08B
:103E1C009CFA00235A461355300000F073FD012321
:103E2C005A463900300000F077FE002815D02D19C5
:103E3C00380000F067FD3B0037001E002F212800E2
:103E4C0009F075FA002812D02B782F2BD8D0401BF4
:103E5C00C4B20C2CD6D90C24D4E70C4B42461360BC
:103E6C00002353600A4A41460A604B7207E0019BEB
:103E7C00ED1A53461D6039004046FFF787FF404658
:103E8C001AB0E0BCBB46B246A846F0BD985D01082E
:103E9C008C510108F0B5A1B0050014001E001FAB39
:103EAC0015A8FFF791FF1F9BE718E35C002B11D0BF
:103EBC000BAB1F4A0B9200220C921E490B915A72AB
:103ECC0015AB5B7A002B10D12800FFF7BBFE280046
:103EDC0021B0F0BD01AC15A92000FFF757FF164A21
:103EEC0021002800FFF784FEF1E733003A0015A902
:103EFC000BA800F011FE002803D12800FFF7A2FE4A
:103F0C00E5E715A800F0FEFC06233340062B0AD08B
:103F1C0001AC0BA92000FFF739FF3A002100280063
:103F2C00FFF766FED3E70BA8C16900F06BFCEFE767
:103F3C00985D01088C510108B80F010810B5FFF706
:103F4C00D3FE10BD10B50100024B00221800FFF784
:103F5C00C1FA10BD3004002010B503480022FF2127
:103F6C00FFF7B8FA10BDC0463004002010B5007938
:103F7C00012108F087FB064B1B78002B00D110BDEC
:103F8C00034B00221A700348FFF7A3FAF7E7C04669
:103F9C00140500203004002010B50400094B1B78D8
:103FAC00002B04D02079002108F06CFB10BD054BD0
:103FBC0001221A70044B054819685A68FFF76AFA0F
:103FCC00F0E7C04614050020040000203004002057
:103FDC0010B504008379002B02D110BDFFF7BCFF94
:103FEC0023895A1C2281044A9342F7D92000FFF7F7
:103FFC00BDFF0023A371F0E7010200008EB006297B
:10400C0005D8052956D88B00314AD3589F4616231C
:10401C00437100200EB070476B462E49009101226F
:10402C001A7100225A712C4A11609B8893800120CE
:10403C00F0E702AB2948029001221A7100225A7152
:10404C00254A10609B8893800800E3E704AB244961
:10405C00049101221A7100225A711F4A11609B8827
:10406C0093800120D6E706AB1E49069101221A71F6
:10407C0000225A71184A11609B8893800120C9E76D
:10408C0008AB1949089101221A7100225A71124A7F
:10409C0011609B8893800120BCE70AAB13490A91FD
:1040AC0001221A7100225A710B4A11609B8893806D
:1040BC000120AFE70CAB0E480C90012119710022C6
:1040CC005A71054A10609B8893800800A2E7C0468D
:1040DC006C51010840787D010400002000093D006E
:1040EC0080841E0040420F0020A1070090D00300E6
:1040FC0048E8010070B50D0008F01CFB0400FFF748
:10410C002BFFFF2806D008F015FB001BA842F6D3A6
:10411C00002000E0012070BDF8B505000F0016006E
:10412C00FFF756FF2800FFF737FF962149002800BC
:10413C00FFF7E0FF40203843C0B2FFF703FF18241D
:10414C0006E03000E040C0B2FFF7FCFE083C64B271
:10415C00002CF6DA002F03D0082F10D0FF2000E03F
:10416C009520FFF7EFFE0024FFF7F6FEE87243B24E
:10417C00002B06DAFF2C04D00134E4B2F4E78720DC
:10418C00EFE7F8BD70B504000D00160000223721D2
:10419C00FFF7C2FF320029002000FFF7BDFF70BD02
:1041AC00F0B585B00600019100240473847284710B
:1041BC004471027108F0BEFA07003079012108F051
:1041CC00E1F93079012108F05DFA494D2800FFF73B
:1041DC0045F902AA47490291012313715471464BC8
:1041EC00196092889A805A682800FFF753F904E006
:1041FC00FF20FFF7A7FE0134E4B2092CF8D93C48A4
:10420C00FFF767F93000FFF7C7FE002200213000EE
:10421C00FFF782FFF07201280ED008F08BFAC01B5A
:10422C00FA23DB009842F0D9012373713000FFF7B9
:10423C009DFE002005B0F0BDD522520008213000B3
:10424C00FFF76AFF04231C00044003421CD0033B0D
:10425C003373337B022B22D000242200292130001F
:10426C00FFF790FFF07200281CD008F063FAC01B17
:10427C00FA23DB009842F0D908237371D6E7FFF7D5
:10428C006BFEF0720134E4B2032CF8D9F37AAA2B4A
:10429C0002D002237371C9E702233373D9E7802458
:1042AC00E405DAE7337B022B07D03000FFF75EFE24
:1042BC0001993000FFF7A2FEBCE700223A21300042
:1042CC00FFF72AFF041E02D006237371AEE7FFF737
:1042DC0043FE3F239843C0B2C02806D13C3B337306
:1042EC0003E0FFF739FE0134E4B2022CF9D9DCE724
:1042FC003004002090D003000400002070B50400AE
:10430C0008F018FA0500FFF727FEE072FF280ED11F
:10431C0008F010FA401B96235B009842F3D91E3B21
:10432C00FF3B63712000FFF721FE002070BDFE28CB
:10433C0002D00D236371F5E70120F7E7F8B504000F
:10434C0015001E1E4ED09B1880229200934213DC47
:10435C008379002B02D003688B4212D02160237B1F
:10436C00032B00D049020A0011212000FFF7D4FED4
:10437C0000280AD0032363712000FFF7F7FD00200B
:10438C00F8BD0389AB420FD9E8E72000FFF7B6FF71
:10439C000028F1D0002323810133A37104E0FFF73F
:1043AC00DBFD2389013323812389AB42F7D300251D
:1043BC0006E0069B5F19FFF7CFFD38700135ADB2F3
:1043CC00B542F6D323899B199BB22381A27A002A8A
:1043DC0003D080229200934206D32000FFF7F8FD11
:1043EC000120CDE70120CBE70120C9E700B583B060
:1043FC00802300929B000022FFF7A0FF03B000BDBA
:10440C0070B5060008001500FFF79CFD002404E0C1
:10441C00285DFFF797FD0134A4B280239B009C42DA
:10442C00F6D3FF20FFF78EFDFF20FFF78BFDFFF784
:10443C0093FDF0721F230340052B01D1012070BDA9
:10444C00112373713000FFF791FD0020F7E770B571
:10445C00040015001E0000290DD0037B032B00D097
:10446C0049020A0018212000FFF756FE002809D047
:10447C000423637101E0122343712000FFF776FDE2
:10448C00002070BD2A00FE212000FFF7B9FF002894
:10449C00F3D0002E17D0962189002000FFF72AFEBA
:1044AC00002802D115236371E7E700220D212000BB
:1044BC00FFF732FE002802D014236371DDE7FFF70B
:1044CC004BFD0028F8D12000FFF750FD0120D8E764
:1044DC0070B50500FFF760FDFFF73EFD04002800F6
:1044EC00FFF744FDFF3C631E9C41E0B270BD10B56C
:1044FC000400406A22000C32012100F0DFFD00288C
:10450C000ED0236A002B06D1E3682362227A802323
:10451C005B4213432372237A20221343237201201C
:10452C0010BD70B50500FFF7E2FF00281BD06A6ACA
:10453C00EB685669023B117C8B40F6181479002C01
:10454C0008D0A019013800F0EFFC00280BD0013C7A
:10455C00E4B2F4E7EB696A6A117C802292008A402B
:10456C009B18EB61012070BD10B50400406900F090
:10457C00B5FC002804D0207E4001024BC01810BDB1
:10458C000020FCE728050020F0B5CE46474680B554
:10459C0085B0002303E05A1C2024CC54D3B20A2B40
:1045AC00F9D900239C460733984626E01E4B6F46EC
:1045BC0064CB64C71B683B606A4613780132002BDE
:1045CC0007D09842F9D1002005B0C0BCB946B0461E
:1045DC00F0BDE045F7D32028F5D97E28F3D80300A9
:1045EC00613BDBB2192B01D82038C0B263460133D2
:1045FC0062468854DBB29C462000441C007800289C
:10460C0009D02E28D2D143460A2B0AD008239C4627
:10461C0002339846F0E708782038431E9841C0B220
:10462C00D2E70020D0E7C046BC0F010870B50400EB
:10463C000D00407A002822D12023CB5C102B0DD00A
:10464C00202B1DD11D3B6372496A216222001C3252
:10465C00280000F0C3FC002807D111E00E3B637268
:10466C00002323624B8C5B01E3616562012323729F
:10467C000023E360236163612376012000E00020C6
:10468C0070BD0000F0B5C64600B584B080460D0084
:10469C001000039243465B7A002B00D185E0434621
:1046AC001B7ADB0700D483E04346DB694246126980
:1046BC00991A884204D99BB292B29B1A9BB203936B
:1046CC00039E31E043465B6A586A520A10184EE06A
:1046DC0042460C324346D96800F048FC00283DD1D4
:1046EC00012040425DE0370043461B7A5B0603D451
:1046FC0080239B009F4241D1324B1B6883423DD0AB
:10470C00314B1B689C4600953B0022000100604623
:10471C00FFF714FE002851D0ED1943461B69DB1935
:10472C0042461361F61BB6B2002E37D043461A69C7
:10473C00D405E40D5B7A022BC4D04346586A570A61
:10474C000379013BDBB21F40002C07D1002F05D1B0
:10475C00002ABDD143461B6A4246D36043465A6A7F
:10476C00DB685069023B127C9340C01838188023D8
:10477C009B001B1B9E42B6DD9FB2B5E7002100F0EB
:10478C00ADFB002817D0114BE318D91903E01A78A8
:10479C002A70013301358B42F9D1BEE76B460C20F0
:1047AC00185E04B080BCB846F0BD01204042F8E76A
:1047BC0001204042F5E701204042F2E7012040424F
:1047CC00EFE7C0460C00002024050020280500203F
:1047DC0070B50500437A012B0ED903695B090F24D0
:1047EC001C40FFF7D7F9002808DB2B691F332B611E
:1047FC006001034BC01870BD0020FCE70020FAE7F5
:10480C002805002070B504000E00407A00282FD037
:10481C00E3698B422BD302281CD000291DD02169BF
:10482C004A1E636A1B7C0933DA40751EDD40AA42BE
:10483C0001D8002916D1236AE3602B00013D002B1F
:10484C0012D0606A22000C32E16800F08FFB002865
:10485C00F3D10DE0216101380AE00023E36023610C
:10486C00012005E0AD1AE8E72661012000E00020F8
:10487C0070BD000070B504000D00407A00280CD00B
:10488C000823E356002B09DB002D03D1237A1022D9
:10489C0093432372280000F0F9FA70BD0121200027
:1048AC00FFF762FE061E28D0637A012B1CD9238CDD
:1048BC00B3761B0AF376638C33751B0A7375104B36
:1048CC001B68002B0BD03100163130001830984784
:1048DC00327E737E1B021343B3741B0AF374227A69
:1048EC007F2313402372CFE7E36903771A0A4277D9
:1048FC001A0C82771B0EC377D9E70020CDE7C04690
:10490C001805002010B504000121FFF7B3FF0028A3
:10491C0002D000236372012010BD000010B504000A
:10492C00437A012B35D1037A9A0734D55B0703D52B
:10493C000369C1698B4217D1194B1868FFF7C8FD81
:10494C0000282AD1237A9A0614D4164A1268002A0F
:10495C001AD1102213432372238ADB05DB0D80202E
:10496C008000C01A80B215E0FFF74CFF0028E3D19D
:10497C0000200FE000212000FFF77CFF237A20228B
:10498C0093432372002005E0002000F065FA00201C
:10499C0000E0002010BD0020FCE70020FAE7C04634
:1049AC00240500201C05002070B582B004000D0009
:1049BC00437A012B4FD1027A022108001040114298
:1049CC004AD0E269AA4249D3002A49D02669AE42AC
:1049DC0000D92E0029002000FFF714FF00283BD03F
:1049EC00002D18D1606A216A00F0D2FB002833D068
:1049FC0000232362E561227A80235B4213432372F6
:104A0C0001212000FFF736FF002825D031002000BF
:104A1C00FFF7F8FE20E0606AE16801AA00F0A6FA50
:104A2C0000280CD0606A01992023C35C102B08D09D
:104A3C000C4B9942DED200F0ABFB002803D10020D6
:104A4C000AE0094BF5E7606AE168084A00F0ECFA05
:104A5C000028CFD1F3E7002002B070BD0020FBE7A7
:104A6C001800F9E7F8FFFF0FF8FF0000FFFFFF0F3A
:104A7C0070B5040015004B01254A9B18DA7A1120F9
:104A8C00104202D042222A423FD12176214A12689A
:104A9C0062611A7D597D0902114309042162987ED5
:104AAC00DA7E1202024311432162DA7A18200600E0
:104ABC001640104216D11A7F597F090211439A7F72
:104ACC0012040A43DB7F1B061343E3610123637269
:104ADC000F232B4023720023E36023616D060FD458
:104AEC00012070BD102E01D00020FAE7606A220070
:104AFC001C3200F073FA0028F3D004236372E7E74A
:104B0C0000212000FFF750FFEBE70020E9E7C0464B
:104B1C00280500200C000020F0B5CE4600B586B06C
:104B2C0006000D000193477A002F05D000273800AE
:104B3C0006B080BCB946F0BD03A91000FFF724FDF8
:104B4C00002800D188E06B6A73620023EB602B6154
:104B5C003C000AE0002C05D14B463376404B1B68D9
:104B6C00736101340B78002B22D02A69EB699A42CD
:104B7C001ED252090F231A4091462800FFF728FE37
:104B8C00011ED4D00378002BE4D0E52BE2D00B220D
:104B9C0003A808F097FB0028E7D13023019A1340B3
:104BAC00302BC4D049463000FFF762FF0700BEE748
:104BBC001223019A1340122BB9D1002C3CD16B7AE1
:104BCC00022B4BD02800FFF7ACFC071EAFD0002304
:104BDC003376244D20220021280008F093FB0B2271
:104BEC0003A9280008F060FC1F4B1B68002B2AD07F
:104BFC002800103029000E3198472A7C6B7C1B0250
:104C0C001343FF221A40AA741B0AEB742A766B76A4
:104C1C00AA7BEB7B1B021343AB751B0AEB750120C4
:104C2C0000F034F9071E00D181E7317E019A300083
:104C3C00FFF71EFF07007AE701213000FFF794FC15
:104C4C00051EC7D173E721232B7407336B74002324
:104C5C00AB730833EB73D0E7070068E7270066E710
:104C6C000C0000202805002018050020F0B5DE46B9
:104C7C0057464E46C0B584B006000D000192027A2C
:104C8C00D306DB0F01214B40DBB29A46437A012B52
:104C9C000ED193070CD5520703D50369C1698B421A
:104CAC0002D1019B994642E0FFF7ACFD0028F8D1F8
:104CBC0001237360002004B0E0BCBB46B246A94699
:104CCC00F0BD3000FFF713FC002849D1F0E703AA30
:104CDC0000F04CF90028EED0716A039B20228A5C0C
:104CEC00102A04D04F4A934203D2F36038E04E4A64
:104CFC00F9E73000FFF7FBFB002831D1D8E74B4B2D
:104D0C001B685B4556D04A4B186853462A005946D7
:104D1C00FFF79DFB0028CBD080239B009C4665446D
:104D2C004B46DB1B9BB299463369DB1933614B460F
:104D3C00002B53D0706A3369590A0279013AD2B206
:104D4C000C001440A346DB05DC0D114208D1002CED
:104D5C0006D1F1680029BAD1336A002BB1D0F360C7
:104D6C008027BF003F1BBFB2B94500D24F46716AC6
:104D7C00F3684A69023B097C8B40D3189B4480231F
:104D8C009B009F42BBD0002C03D13269F3699A423D
:104D9C0015D20121584600F0A1F8002800D187E770
:104DAC00244BE318D9198B42BAD02A781A700133E4
:104DBC000135F8E71D4B012252421A60A3E701208E
:104DCC0000F064F8002800D172E7184B5A461A60BC
:104DDC00194A137801210B431370E1E73369F26927
:104DEC0093420AD9F361327A80235B4213433372C4
:104DFC00337A1B070ED401985DE7104B1B68002B10
:104E0C00F6D0019B002BF3D0327A80235B42134304
:104E1C003372EDE701213000FFF72CFD0028EAD1B9
:104E2C0046E7C046F8FFFF0FF8FF00000C0000201B
:104E3C00240500202805002020050020180500204E
:104E4C0000B583B06B46D971073301221900FFF707
:104E5C000DFF03B000BD000010B50300084A116837
:104E6C00002901D1012010BD064A07480068FFF750
:104E7C00EEFA0028F7D0024B00221A600120F2E76C
:104E8C001C050020280500202405002010B5040076
:104E9C000E4B1B78002B01D1012010BD0C4A0D4B81
:104EAC0019680D4B18682300FFF7D1FA0028F4D0CD
:104EBC00002C01D10120F0E72000FFF7CDFF0028E6
:104ECC00EBD0024B00221A700120E6E720050020EF
:104EDC00280500200C0000202405002070B50500DA
:104EEC000C000D4B1B68834205D10C4B1A781443F4
:104EFC001C70012070BD0120FFF7C8FF0028F9D0FD
:104F0C00074A084B18682900FFF770FA0028F1D0FF
:104F1C00014B1D60E9E7C0460C0000202005002075
:104F2C00280500202405002010B504000120FFF7FF
:104F3C00ADFF002812D0002304E0094A0021D1540F
:104F4C0001339BB2802292009342F6D3054B1C6036
:104F5C00054A137801210B431370012010BDC04684
:104F6C00280500200C0000202005002070B504004E
:104F7C000D001600C36801338B4228D3C36920226D
:104F8C00825C102A13D0C809C018124B1B688342CC
:104F9C000FD12023E35C102B11D07F232B400E4A22
:104FAC009B009B581B011B093360012070BD080A34
:104FBC00EAE70021FFF792FF0028EAD1F6E7EF338A
:104FCC002B40054A5B009B5A33600120EEE7002022
:104FDC00ECE7C0460C0000202805002070B582B01C
:104FEC00040001911600002502E00D4A934212D2F2
:104FFC00019901AA2000FFF7B9FF00280DD0227CEF
:10500C0080239B009340ED18019B2022A25C102A68
:10501C00EBD0044AEAE73560012002B070BDC0460F
:10502C00F8FF0000F8FFFF0FF8B504000D001600A4
:10503C00012934D9C36801338B4232D3C36920228E
:10504C00825C102A1CD0CF09FF18184B1B68BB427E
:10505C0018D12023E35C102B1BD07F232B40144A48
:10506C009B009E50134A137801210B431370237E2F
:10507C00012B18D9A368DB190F4A136001200FE02C
:10508C000F0AE1E700213800FFF728FF0028E0D1E4
:10509C0006E0EF332B40064A5B009E52E2E700200D
:1050AC00F8BD0020FCE70120FAE7C0460C00002008
:1050BC0028050020200500201C050020F0B5DE4648
:1050CC0057464E464546E0B583B0060089469246A3
:1050DC001768002F08D0013700239B46F368013373
:1050EC0098463C0000250DE007680B00013B5A4236
:1050FC005341DBB29B46F1E7E31B01334B451CD01C
:10510C0001350134F368AB420FD9444501D902246F
:10511C00022701AA21003000FFF728FF002804D045
:10512C00019B002BE8D0671CEAE7002003B0F0BC21
:10513C00BB46B246A946A046F0BD144A2100300039
:10514C00FFF772FF0028F1D0A74209D2651E22009A
:10515C0029003000FFF768FF0028E7D02C00F3E7A8
:10516C0053461968002908D153461F605B46002B33
:10517C000AD0013737600120D8E73A003000FFF73A
:10518C0053FF0028F0D1D1E70120CFE7FFFFFF0F3D
:10519C0030B583B005000C000223036002E00E4B17
:1051AC009C4214D201AA21002800FFF7DFFE002840
:1051BC000FD0002221002800FFF736FF002808D06E
:1051CC00019C2023EB5C102BE9D0044BE8E7012079
:1051DC0000E0002003B030BDF8FF0000F8FFFF0F27
:1051EC00F8B50500141E4E4B19602BD0042A01D9BA
:1051FC000020F8BD00210020FFF770FE0028F8D039
:10520C00013C484B22019B18BF33FF331B787F2294
:10521C00100018401A4200D07AE0424B22001C3297
:10522C0012019B185A899B891B041343632BE0D9E9
:10523C003C4B1C3424011B19DC881B891B041C43AC
:10524C0001D1D6E7002400212000FFF747FE0028FB
:10525C00CFD0344BDA7A1B7B1B0213438022920093
:10526C00934257D12F4B187C0028C2D0DB89002BDE
:10527C0052D02C4B597B002950D028762971002311
:10528C002B742A7C01239340994205D0531C2B7418
:10529C00072AF6D90020ACE7224BDE8A002E00D17B
:1052AC005E6AAE601F48C1890919E96103691B0276
:1052BC001F0C3B006F84077C7E43891969625B017C
:1052CC00194EB44663445B12CB186B61C67C017DEE
:1052DC000902314300D1016AE31A5B18EB60D34039
:1052EC00EB60124A934204D820230C22EA5401208A
:1052FC007FE70F4A934204D820231022EA5401205E
:10530C0077E7084BDB6A6B622023EB54012070E7D4
:10531C0000206EE700206CE700206AE7080068E7D1
:10532C002405002028050020FF010000F40F0000D8
:10533C00F4FF00007047000010B50400114B197801
:10534C00002901D1012010BDFA208000FAF7C2FE1D
:10535C0001000D4B1868FAF7BDFE00F0E1FD0028C6
:10536C000DD1032C01D90120EDE7013000222100E1
:10537C00404200F0B5FD054B1C600020E3E7012026
:10538C00E1E7C04610000020580000201400002067
:10539C0010B5084A116880235B000B431360002092
:1053AC00FFF7CAFF041E02D00124200010BDFFF736
:1053BC00C1FFFAE700200240034B1B78034A116837
:1053CC005B1813607047C0461000002028070020AF
:1053DC00014B18687047C04628070020034A136821
:1053EC0003490B40034313607047C0460000014063
:1053FC00FFF9FFFF30B583B00400002301930028B0
:10540C0000D106E1836D002B13D023689A68D2007B
:10541C001CD49968804A1140802252050A439A6034
:10542C007E4B18687E49FAF755FE0130400001901A
:10543C0009E004F035FA0023E3655422A354E4E7B1
:10544C00019B013B0193019B002BF9D123689A68C6
:10545C00D20000D59DE0A26D10210A43A265E26D39
:10546C000F390A43E26501209A6804210D001540AA
:10547C00114200D00125A26DD20600D5C2E0002D4C
:10548C0000D0BFE0A26D67490A400631FF310A43E4
:10549C00A2659A68D20752D4A268217E89030A4376
:1054AC00617EC9030A43A57E69030A43216B002967
:1054BC0001D0802149010A43E1680A43216900298E
:1054CC0069DB802189030A432C21615C49000A4372
:1054DC002021615C012961D0616A002905D0E02599
:1054EC006D002940A56A29430A43D9684E4D2940CD
:1054FC000A43DA6063689B0F9B07E26C1A433C21FA
:10550C00615C012959D021680B69484D2B4013432C
:10551C000B616368C0221206934210D08022D20520
:10552C0093420CD080221206934208D040490A685C
:10553C00404D2A40F025AD032B4013430B602168EE
:10554C00636B4A690725AA4313434B612168A26B1D
:10555C004B696935AB43120113434B612369002B33
:10556C0035D12268916A103B0B43936223685A69C8
:10557C0007231340626B9A423BD0A36D12229343D4
:10558C00023A1343A365E36D0F3A1343E36501201D
:10559C003DE0002068E74900490894E7002D03D15D
:1055AC00802149020A4397E7A16D20252943A16573
:1055BC00E16D1F3D2943E1658EE7216C0B43616C66
:1055CC000B43A16C0B43134301221A439BE780222C
:1055DC0092039342CAD121688B6AE369013B9B0019
:1055EC001C221A4010235B429340226E13438B62A1
:1055FC00BCE70023E365A36D03229343023A1343F4
:10560C00A36504E0A36D10221343A365012003B02E
:10561C0030BD0120FBE7C046E8FFFF6F58000020BB
:10562C00400D0300FDFEFFFF0102DEFF02FCFF1F29
:10563C0008270140FFFFC3FFF8B504000D004669C1
:10564C00082E04D00368DB68DB071DD40426FFF7A3
:10565C00BFFE070023681A6816421BD16B1CF9D0D9
:10566C00FFF7B6FEC01BA84201D8002DF2D123686B
:10567C001B681E42EED1A36D04221343A365542371
:10568C000022E254032029E0836D2022134383651A
:10569C00012023E0A16D802292000A43A265D96803
:1056AC00C0221201114213D1A27E002A10D11A6815
:1056BC0012070DD59A68520711D45A680C218A43E7
:1056CC005A60A36D0B4A13400432FF321343A36597
:1056DC00207E00280CD123680C221A60F8BDA36D23
:1056EC0020221343A365E36D1F3A1343E365EFE7F1
:1056FC000020F3E7FEFEFFFF0368186C7047000004
:10570C00F0B583B004000023019305695433C35CE6
:10571C00012B00D12FE154230122C254006883686D
:10572C00033216001E401A4209D0A36D1C321343DB
:10573C00A365012054230022E25403B0F0BD4B6852
:10574C00022B00D1D5E080221206954225D08B4A3F
:10575C00954222D0226E1F271F400F25BD40AA4321
:10576C000B685D032FD19B0E1F261E40BE4032439B
:10577C0022664D68AB080133E269934213D80E6878
:10578C00826A1F231D40103B1F00AF40BA43B60E68
:10579C003340AB401343836205E00B68826A5B03C2
:1057AC005B0B1343836220680B688D6842691B0294
:1057BC009A432B40724D2B40134343610B68002BD3
:1057CC004FDB0020B6E7DD07D0D49D0727D45D075B
:1057DC0027D41D0727D4DD0627D49D0627D45D06C4
:1057EC0027D41D0627D4DD0527D49D0527D45D05B8
:1057FC0027D41D0527D4DD0427D49D0427D45D04AC
:10580C0027D41D0427D4DD0327D49D0327D480255A
:10581C00ED021E002E402B42A8D01226A6E7012630
:10582C00A4E70226A2E70326A0E704269EE70526A6
:10583C009CE706269AE7072698E7082696E70926A6
:10584C0094E70A2692E70B2690E70C268EE70D26A6
:10585C008CE70E268AE70F2688E7102686E71126A6
:10586C0084E7484A1168E02252040A4046488342C1
:10587C0007D04648834222D0454883422CD0002092
:10588C0058E70802F5D480231B0413433D490A68EA
:10589C004048024013430B603F4B18683F49FAF7EE
:1058AC0019FC013043001B189B00019302E0019B83
:1058BC00013B0193019B002BF9D100203AE7C80171
:1058CC00DAD480235B0413432E490A683148024022
:1058DC0013430B6000202DE749024AD48023DB03DD
:1058EC00134328490A682B48024013430B600020DD
:1058FC0020E780231B069D4202D0204B9D4205D100
:10590C000B68826A5B035B0B9A4382620B68002B09
:10591C0001DB00200EE71B4A12681B498B4207D0A3
:10592C001A498B420FD01A498B4217D0002001E73D
:10593C00A0235B041A4013490B68164803401A4312
:10594C000A600020F6E6C0231B041A400D490B68C0
:10595C00104803401A430A600020EBE6C0235B04A6
:10596C001A4008490B680B4803401A430A60002090
:10597C00E0E60020DEE60220DFE6C0460400008000
:10598C0000FFFF0708270140001000B0004000B8DE
:10599C00002000B4FFFF3FFE58000020400D030024
:1059AC00806D704770B50400026893685B0724D55E
:1059BC0093689B0705D4936811490B4010210B4346
:1059CC009360FFF705FD050023689B685B0712D504
:1059DC00FFF7FEFC401B0228F6D923689B685B0787
:1059EC00F2D5A36D10221343A365E36D0F3A134355
:1059FC00E365012002E0002000E0002070BDC046FD
:105A0C00E8FFFF7F30B583B00400002301930368E7
:105A1C009A68D2074FD49968284A114211D19A68D2
:105A2C0027490A4001210A439A60264B1B681B0236
:105A3C0017D5254B18682549FAF74CFB0130019016
:105A4C000CE0836D102213438365C36D0F3A13432F
:105A5C00C365012030E0019B013B0193019B002BAE
:105A6C00F9D1637E012B01D1002025E0FFF7B0FCBA
:105A7C00050023681A68D2071BD49A68D20705D48C
:105A8C009A680F490A4001210A439A60FFF7A0FC6B
:105A9C00401B0228EDD923681B68DB07E9D4A36DF2
:105AAC0010221343A365E36D0F3A1343E365012002
:105ABC0002E0002000E0002003B030BD17000080A1
:105ACC00E8FFFF7F0827014058000020400D03002D
